:100000000C942A000C94C3050C94ED050C9417066F
:100010000C9413070C94E9060C9447000C94BF064B
:100020000C9447000C9495060C9447000C946B06B6
:100030000C9441060C943D070C9447000C94670700
:100040000C9476030C9447000C9447000C944700E2
:100050000C94470011241FBECFE5D8E0DEBFCDBF12
:1000600010E0A0E6B0E0E8EAFFE002C005900D92E3
:10007000A63BB107D9F720E0A6EBB0E001C01D9286
:10008000AE3BB207E1F70E946F020C94D2070C94CA
:100090000000CF93C0E006C061E085E18C1B0E94A8
:1000A000AC04CF5FC430C0F3CF910895CF93C82F75
:1000B00060E083E00E94AC046C2F661F6627661F19
:1000C0008CE00E94AC04C6FB662760F98BE00E94BE
:1000D000AC04C5FB662760F989E00E94AC04C4FB50
:1000E000662760F988E00E94AC0461E084E00E9429
:1000F000AC048FEC97E00197F1F700C0000060E0DE
:1001000084E00E94AC048FEC97E00197F1F700C007
:100110000000C3FB662760F98CE00E94AC04C2FBC0
:10012000662760F98BE00E94AC04C1FB662760F98A
:1001300089E00E94AC046C2F617088E00E94AC04DE
:1001400061E084E00E94AC048FEC97E00197F1F746
:1001500000C0000060E084E00E94AC048FEC97E0F7
:100160000197F1F700C00000CF910895CF93C82FF9
:1001700061E083E00E94AC046C2F661F6627661F57
:100180008CE00E94AC04C6FB662760F98BE00E94FD
:10019000AC04C5FB662760F989E00E94AC04C4FB8F
:1001A000662760F988E00E94AC0461E084E00E9468
:1001B000AC048FEC97E00197F1F700C0000060E01D
:1001C00084E00E94AC048FEC97E00197F1F700C047
:1001D0000000C3FB662760F98CE00E94AC04C2FB00
:1001E000662760F98BE00E94AC04C1FB662760F9CA
:1001F00089E00E94AC046C2F617088E00E94AC041E
:1002000061E084E00E94AC048FEC97E00197F1F785
:1002100000C0000060E084E00E94AC048FEC97E036
:100220000197F1F700C00000CF9108952FE788E310
:1002300091E0215080409040E1F700C0000082E052
:100240000E94560088E20E9456008CE00E945600F0
:1002500081E00E9456008FEC97E00197F1F700C013
:10026000000086E00E9456000895811105C080E8D4
:10027000860F0E9456000895813029F480EC860F85
:100280000E9456000895823029F484E9860F0E9466
:1002900056000895833021F484ED860F0E945600A5
:1002A00008950E94B60008950F931F93CF938C0179
:1002B000C0E003C00E945101CF5FF801EC0FF11DB7
:1002C00080818111F7CFCF911F910F910895CF9326
:1002D000DF93EA010E943501CE010E945401DF91B3
:1002E000CF910895CF92DF92EF92FF921F93CF9319
:1002F000DF93CDB7DEB760970FB6F894DEBF0FBEC1
:10030000CDBF6B017C01611571058105910521F45B
:1003100080E30E9451013BC099235CF48DE20E946E
:100320005101F094E094D094C094C11CD11CE11C04
:10033000F11C10E015C0C701B6012AE030E040E032
:1003400050E00E94B307E1E0F0E0EC0FFD1FE10F89
:10035000F11D605D60831F5FC22ED32EE42EF52E4B
:10036000C114D104E104F10431F7FF24FA94F10E31
:100370000CC0E1E0F0E0EC0FFD1FEF0DF11DF7FC0C
:10038000FA9580810E945101FA94FF2094F76096BB
:100390000FB6F894DEBF0FBECDBFDF91CF911F9196
:1003A000FF90EF90DF90CF900895CF93DF93D42FFD
:1003B0000E943501C0E004C080E20E945101CF5F7D
:1003C000CD17D0F3DF91CF910895CF93DF9386B10E
:1003D0008F7786B98091BC0081110FC0C091BC009D
:1003E000D0E00E945203CC0FDD1FCA54DF4F998327
:1003F000888381E08093BC0024C08091BC00813060
:1004000079F4C091BC00D0E00E945203CC0FDD1FF4
:10041000CA54DF4F9983888382E08093BC0011C067
:100420008091BC00823069F4C091BC00D0E00E9491
:100430005203CC0FDD1FCA54DF4F9983888310927B
:10044000BC00DF91CF91089544E060E080E00E941D
:10045000D50148E950E060E081E00E9467012FE7A4
:100460008AE196E0215080409040E1F700C0000012
:1004700060E08AE10E94AC04089544E068E080E016
:100480000E94D50142EA50E060E082E00E946701EC
:100490002FE78AE196E0215080409040E1F700C0CC
:1004A000000060E08BE10E94AC04089544E06FE03E
:1004B00080E00E94D5014CEA50E060E083E00E94B9
:1004C00067012FE78AE196E0215080409040E1F7F4
:1004D00000C0000060E08AE00E94AC04089564E27D
:1004E00072E080E00E94AE056DE372E081E00E9460
:1004F000AE0566E572E082E00E94AE050E949C04B3
:100500000E9416010E944900789466E081E00E94F2
:100510002D0385EE91E00E9459030E94A10580E021
:100520000E942F0581E00E942F0582E00E942F0586
:1005300080E00E94720378940E94550360E08AE193
:100540000E94AC0460E08BE10E94AC0460E08AE0B1
:100550000E94AC048091B6009091B700813991401F
:1005600028F061E08AE10E94AC041AC04AE060E031
:1005700081E00E94D50144E060E080E00E94D50166
:1005800060E080E00E9435016091B6007091B70094
:1005900080E090E00E94720160E08AE10E94AC0479
:1005A0008091B8009091B9008139914028F061E0C4
:1005B0008BE10E94AC041AC04AE060E082E00E9435
:1005C000D50144E068E080E00E94D50168E080E069
:1005D0000E9435016091B8007091B90080E090E010
:1005E0000E94720160E08BE10E94AC048091BA002D
:1005F0009091BB008139914028F061E08AE00E942F
:10060000AC041AC04AE060E083E00E94D50144E0F7
:100610006FE080E00E94D5016FE080E00E9435012C
:100620006091BA007091BB0080E090E00E9472017E
:1006300060E08AE00E94AC048091BC000E945E03EE
:1006400086B1806886B98FEF90E722E081509040B4
:100650002040E1F700C0000071CF813059F018F060
:10066000823079F014C087B18F7B87B987B18F77DB
:1006700087B90DC087B1806487B987B18F7787B993
:1006800006C087B1806487B987B1806887B986B1B1
:10069000887F86B9677086B1682B66B986B1806835
:1006A00086B9089584B195B1089586B1886086B9F8
:1006B0000895909361008093600008959091BD002B
:1006C00091110FC096B1986096B997B1907E97B985
:1006D00097B1892B87B986B1806486B981E0809310
:1006E000BD00089580E00E945E0308951F920F925E
:1006F0000FB60F9211242F933F934F935F936F93F5
:100700007F938F939F93AF93BF93EF93FF93109239
:10071000BD00E0916000F09161000995FF91EF91BB
:10072000BF91AF919F918F917F916F915F914F9109
:100730003F912F910F900FBE0F901F901895982FFB
:100740009770869586958695613009F455C020F09E
:10075000623009F4A1C008958130C1F028F08230E0
:1007600039F18330B9F108954AB321E030E0B9019D
:1007700002C0660F771F9A95E2F7CB01942F982B52
:100780009ABB9BB3809589238BBB089547B321E027
:1007900030E0B90102C0660F771F9A95E2F7CB01EE
:1007A000942F982B97BB98B38095892388BB089585
:1007B00044B321E030E0B90102C0660F771F9A957B
:1007C000E2F7CB01942F982B94BB95B380958923A6
:1007D00085BB089541B321E030E0B90102C0660F46
:1007E000771F9A95E2F7CB01942F982B91BB92B388
:1007F0008095892382BB08958130C1F028F0823032
:1008000039F18330B9F108954AB321E030E0B901FC
:1008100002C0660F771F9A95E2F7CB018095942F5F
:1008200098239ABB9BB389238BBB089547B321E0E0
:1008300030E0B90102C0660F771F9A95E2F7CB014D
:100840008095942F982397BB98B3892388BB0895EC
:1008500044B321E030E0B90102C0660F771F9A95DA
:10086000E2F7CB018095942F982394BB95B389230D
:1008700085BB089541B321E030E0B90102C0660FA5
:10088000771F9A95E2F7CB018095942F982391BB1F
:1008900092B3892382BB08958130C1F028F0823061
:1008A00039F18330B9F108954AB321E030E0B9015C
:1008B00002C0660F771F9A95E2F7CB01962F9095AD
:1008C00094239ABB9BB3892B8BBB089547B321E03C
:1008D00030E0B90102C0660F771F9A95E2F7CB01AD
:1008E000962F9095942397BB98B3892B88BB089536
:1008F00044B321E030E0B90102C0660F771F9A953A
:10090000E2F7CB01962F9095942394BB95B3892B56
:1009100085BB089541B321E030E0B90102C0660F04
:10092000771F9A95E2F7CB01962F9095942391BB70
:1009300092B3892B82BB0895CF93C0E009C0EC2FFE
:10094000F0E0E858FF4F60818C2F0E949F03CF5F3B
:10095000C032A8F3CF910895982F97708695869509
:1009600086956130E1F5813099F028F08230E9F028
:10097000833041F108954BB321E030E0B90102C06A
:10098000660F771F9A95E2F7CB01842B8BBB0895F6
:1009900048B321E030E0B90102C0660F771F9A9595
:1009A000E2F7CB01842B88BB089545B321E030E00A
:1009B000B90102C0660F771F9A95E2F7CB01842B2D
:1009C00085BB089542B321E030E0B90102C0660F53
:1009D000771F9A95E2F7CB01842B82BB0895813073
:1009E000A1F028F08230F9F0833059F108954BB32B
:1009F00021E030E0B90102C0660F771F9A95E2F757
:100A0000CB01809584238BBB089548B321E030E06F
:100A1000B90102C0660F771F9A95E2F7CB01809566
:100A2000842388BB089545B321E030E0B90102C0BA
:100A3000660F771F9A95E2F7CB018095842385BBDB
:100A4000089542B321E030E0B90102C0660F771F7C
:100A50009A95E2F7CB018095842382BB089581307B
:100A600041F018F0823049F008958BB780648BBF55
:100A700008958BB780688BBF08958BB780628BBF5A
:100A80000895813049F120F0823009F449C0089579
:100A9000613069F028F0623089F06330B1F0089578
:100AA00085B78E7F85BF85B78D7F85BF089585B754
:100AB000816085BF85B78D7F85BF089585B78E7F9F
:100AC00085BF85B7826085BF089585B7816085BF82
:100AD00085B7826085BF0895613069F028F0623083
:100AE00089F06330B1F0089585B78B7F85BF85B7F6
:100AF000877F85BF089585B7846085BF85B7877F69
:100B000085BF089585B78B7F85BF85B7886085BF12
:100B1000089585B7846085BF85B7886085BF0895CF
:100B2000623019F0633029F008C084B78F7B84BF2E
:100B3000089584B7806484BF089584B78F7B84BF91
:100B4000089563E080E00E94410563E081E00E9437
:100B5000410563E082E00E9441050895813049F03B
:100B600018F0823059F00895709367006093660022
:100B70000895709365006093640008957093630016
:100B80006093620008951F920F920FB60F92112486
:100B90002F933F934F935F936F937F938F939F9385
:100BA000AF93BF93EF93FF93E0916600F0916700DE
:100BB000E230F10509F00995FF91EF91BF91AF91F6
:100BC0009F918F917F916F915F914F913F912F9165
:100BD0000F900FBE0F901F9018951F920F920FB697
:100BE0000F9211242F933F934F935F936F937F93B3
:100BF0008F939F93AF93BF93EF93FF93E091640024
:100C0000F0916500E230F10509F00995FF91EF914F
:100C1000BF91AF919F918F917F916F915F914F9114
:100C20003F912F910F900FBE0F901F9018951F921C
:100C30000F920FB60F9211242F933F934F935F9310
:100C40006F937F938F939F93AF93BF93EF93FF9394
:100C5000E0916200F0916300E230F10509F009953E
:100C6000FF91EF91BF91AF919F918F917F916F9184
:100C70005F914F913F912F910F900FBE0F901F905A
:100C800018951F920F920FB60F9211242F933F9336
:100C90004F935F936F937F938F939F93AF93BF9384
:100CA000EF93FF93E0916800F0916900E230F10565
:100CB00009F00995FF91EF91BF91AF919F918F91AD
:100CC0007F916F915F914F913F912F910F900FBE48
:100CD0000F901F9018951F920F920FB60F9211242C
:100CE0002F933F934F935F936F937F938F939F9334
:100CF000AF93BF93EF93FF93E0917200F091730075
:100D0000E230F10509F00995FF91EF91BF91AF91A4
:100D10009F918F917F916F915F914F913F912F9113
:100D20000F900FBE0F901F9018951F920F920FB645
:100D30000F9211242F933F934F935F936F937F9361
:100D40008F939F93AF93BF93EF93FF93E0917000C6
:100D5000F0917100E230F10509F00995FF91EF91F2
:100D6000BF91AF919F918F917F916F915F914F91C3
:100D70003F912F910F900FBE0F901F9018951F92CB
:100D80000F920FB60F9211242F933F934F935F93BF
:100D90006F937F938F939F93AF93BF93EF93FF9343
:100DA000E0916E00F0916F00E230F10509F00995D5
:100DB000FF91EF91BF91AF919F918F917F916F9133
:100DC0005F914F913F912F910F900FBE0F901F9009
:100DD00018951F920F920FB60F9211242F933F93E5
:100DE0004F935F936F937F938F939F93AF93BF9333
:100DF000EF93FF93E0916C00F0916D00E230F1050C
:100E000009F00995FF91EF91BF91AF919F918F915B
:100E10007F916F915F914F913F912F910F900FBEF6
:100E20000F901F9018951F920F920FB60F921124DA
:100E30002F933F934F935F936F937F938F939F93E2
:100E4000AF93BF93EF93FF93E0916A00F0916B0033
:100E5000E230F10509F00995FF91EF91BF91AF9153
:100E60009F918F917F916F915F914F913F912F91C2
:100E70000F900FBE0F901F9018951F920F920FB6F4
:100E80000F9211242F933F934F935F936F937F9310
:100E90008F939F93AF93BF93EF93FF93E09176006F
:100EA000F0917700E230F10509F00995FF91EF919B
:100EB000BF91AF919F918F917F916F915F914F9172
:100EC0003F912F910F900FBE0F901F9018951F927A
:100ED0000F920FB60F9211242F933F934F935F936E
:100EE0006F937F938F939F93AF93BF93EF93FF93F2
:100EF000E0917400F0917500E230F10509F0099578
:100F0000FF91EF91BF91AF919F918F917F916F91E1
:100F10005F914F913F912F910F900FBE0F901F90B7
:100F20001895A1E21A2EAA1BBB1BFD010DC0AA1F1A
:100F3000BB1FEE1FFF1FA217B307E407F50720F042
:100F4000A21BB30BE40BF50B661F771F881F991FBD
:100F50001A9469F760957095809590959B01AC0106
:100F6000BD01CF010895052E97FB1EF400940E9449
:100F7000CA0757FD07D00E94910707FC03D04EF423
:100F80000C94CA0750954095309521953F4F4F4F8F
:100F90005F4F089590958095709561957F4F8F4F25
:080FA0009F4F0895F894FFCF64
:100FA8000200020002000200020002000200020029
:100FB800020002000200020001010100000000001E
:100FC8000000000000000100000000000000000018
:100FD800010000000202020253656E736F72203135
:100FE8002E0053656E736F7220322E0053656E7338
:060FF8006F7220332E0091
:00000001FF
